:020000040800F2
:10000000B008002091010008132800080122000810
:10001000112800086B050008F32C00080000000000
:10002000000000000000000000000000452900085A
:10003000AF05000800000000FB2800084729000861
:10004000AB010008AB010008AB010008AB010008E0
:10005000AB010008AB010008AB010008AB010008D0
:10006000AB010008AB010008AB0100086D050008FA
:10007000AB010008AB010008AB01000879050008DE
:10008000AB010008AB01000809050008AB0100083E
:10009000AB010008AB010008AB010008AB01000890
:1000A000AB010008AB010008AB010008AB01000880
:1000B000C9290008AB010008AB010008AB0100082A
:1000C000AB010008AB010008AB010008AB01000860
:1000D000AB010008AB010008AB010008AB01000850
:1000E000B1050008AB010008AB01000800F002F800
:1000F00000F03EF80AA090E8000C82448344AAF184
:100100000107DA4501D100F033F8AFF2090EBAE881
:100110000F0013F0010F18BFFB1A43F0010318473B
:10012000402D0000602D0000103A24BF78C878C12F
:10013000FAD8520724BF30C830C144BF04680C60ED
:10014000704700000023002400250026103A28BF35
:1001500078C1FBD8520728BF30C148BF0B60704739
:100160001FB59DE8030000F0F1F81FBD10B510BDEC
:1001700000F048F91146FFF7F3FF02F0CBFD00F065
:1001800066F903B4FFF7F2FF03BC00F097F9000033
:100190000948804709480047FEE7FEE7FEE7FEE71B
:1001A000FEE7FEE7FEE7FEE7FEE7FEE70448054957
:1001B000054A064B70470000C5290008ED000008FD
:1001C000B0020020B0080020B0040020B0040020DD
:1001D00070B5064600F09EF8056806F10B0020F0A9
:1001E0000704B4429CBF002070BD2B466A68BAB1B8
:1001F0001068A04210D304F1080188423CBF506847
:10020000586007D35168101941601168091B0160DB
:1002100058601460101D70BD13465268002AE7D163
:100220002146284600F07EF80028DED170BD70B56A
:100230000446051F00F06EF80068002C14BF4468E7
:1002400070BD002C18BFAC423CBF20466468F8D398
:1002500001680A18AA4218BF456003D12A680546FA
:100260001144016028684119A1421CBF6C6070BD37
:100270006168696021680844286070BD4FF0000221
:100280000429C0F0128010F0030C00F01B80CCF1A8
:10029000040CBCF1020F18BF00F8012BA8BF20F816
:1002A000022BA1EB0C0100F00DB85FEAC17C24BF6A
:1002B00000F8012B00F8012B48BF00F8012B704714
:1002C0004FF0000200B5134694469646203922BFEF
:1002D000A0E80C50A0E80C50B1F12001BFF4F7AF3A
:1002E000090728BFA0E80C5048BF0CC05DF804EB1C
:1002F000890028BF40F8042B08BF704748BF20F88A
:10030000022B11F0804F18BF00F8012B7047704787
:100310007047704700487047580200207047704788
:100320007047704738B504460A4600206946AFF367
:100330000080002808BF38BD02460099204600F022
:100340003FF8012038BD012000F054B8F8B5AFF3F4
:100350000080054600200C46102000BF0646A81964
:10036000A0420DD9324669460020AFF30080070055
:1003700008BF00F03FF80098A04218BF0546C41916
:10038000FFF7C8FF05600746F01D20F0070046197B
:10039000284600F00AF8B44208BFF8BDA21B314657
:1003A0003868BDE8F84000F00BB800210160C0E9F2
:1003B000011070471020704700487047500200201D
:1003C000034640688C46002818BF88423CBF03465D
:1003D0004068F8D318681844884207D00CF103002D
:1003E00020F00700001D411A521A0146081D0A603C
:1003F000FFF71DBF10B500F039F8BDE8104000F060
:100400002FB870477546FFF7D7FFAE46050069461F
:10041000534620F00700854618B020B5FFF7C6FE0A
:10042000BDE820404FF000064FF000074FF00008F5
:100430004FF0000B21F00701AC46ACE8C009ACE876
:10044000C009ACE8C009ACE8C0098D46704710B5DA
:100450000446AFF300802046BDE81040FFF791BE90
:10046000002801D000F02AB87047000010B501281C
:1004700005D0002103A000F027F8012010BD09A13C
:10048000F8E7000053494752544D454D3A204F7507
:1004900074206F662068656170206D656D6F72797C
:1004A000000000003A2048656170206D656D6F7234
:1004B0007920636F72727570746564000149182049
:1004C000ABBEFEE72600020070B505460C460A20CA
:1004D00000E06D1C00F011F835B128780028F8D143
:1004E00002E0641C00F009F814B120780028F8D16B
:1004F000BDE870400A20AFF3008008B569468DF86A
:1005000000000320ABBE08BD014800F0D8B80000D1
:100510001800002070B5044600688168C943C90707
:1005200017D1816821F00101816000F099FC054636
:100530000AE000BF00F094FC401B022804D92068A8
:100540008068C043C00706D020688068C043C007E9
:10055000F0D0002070BDA06A40F01000A062E06AF8
:1005600040F00100E062012070BDFEE7014800F0AC
:100570003FBA000048000020014800F039BA0000EE
:100580000C02002030B590F840500124AC40C56BFF
:100590006C60046863604368102B036803D0996043
:1005A0000068C26030BD9A600068C16030BD7047AD
:1005B0004FF4006000F04ABB72B6FEE770470000DF
:1005C000F8B50024009490F824202546012A12D082
:1005D000012280F824204A681F23072A0DD20668CA
:1005E000776B521E02EB820293409F430B6893404D
:1005F0001F43776319E00220F8BD06680D2A0AD26E
:10060000376BD21F02EB820293409F430B689340EB
:100610001F43376309E0F76A0D3A02EB8202934009
:100620009F430B6893401F43F7620A6807230668DD
:100630000A2A0AD3F7680A3A02EB420293409F4320
:100640008B6893401F43F76008E0376902EB420272
:1006500093409F438B6893401F4337610A68102A79
:1006600001D0112A20D1124B02689A4217D1936807
:100670001B0219D4936843F400039360096810299E
:1006800012D10C490C4A0968B1FBF2F101EB81016E
:10069000490000E0491E00910029FBD104E0816A75
:1006A00041F020018162012480F824502046F8BDE9
:1006B000002401401400002040420F00704770B534
:1006C0000446006806684568A90625D5B10723D504
:1006D000A16AC90603D4A16A41F40071A1628168CC
:1006E000C1F34241072910D1217B71B9416821F042
:1006F00020014160A06A20F48070A062A06AC0045A
:1007000003D4A06A40F00100A0622046FFF7D6FFA4
:1007100021686FF01200086028062ED570072CD5CE
:10072000A06AC00603D4A06A40F40050A06220680A
:100730008168C1F30231072909D04168490515D400
:100740008168C1F34241072910D1217B71B9416809
:1007500021F080014160A06A20F48050A062A06A6C
:10076000C00503D4A06A40F00100A0622046FFF754
:1007700025FF21686FF00C00086068060CD5F007B3
:100780000AD0A06A40F48030A062204600F094F8BD
:1007900021686FF00100086070BD00002DE9F04194
:1007A0004FF0000704003D467ED0A06A002628B91D
:1007B000E66284F82460204600F080F82046FFF7C7
:1007C000A9FEA16AC90600D420B1A06A40F01000B9
:1007D000A06269E0A16A21F4885141F00201A1629E
:1007E0006268E169237B0A4347EA43010A43A1683F
:1007F0004FF48077B94209D0012907D05FF000019A
:1008000094F814C0BCF1010F02D00AE03946F7E7B2
:10081000F3B1A36A43F02003A362E36A43F0010348
:10082000E3622368D3F804C02CF4694C4CEA010C51
:10083000C3F804C021688B68DFF870C003EA0C03BA
:1008400013438B60A168B9420BD0012909D00CE099
:10085000DFF85CC0A3690CEB43330B4343F4006146
:10086000DFE7218A0D05A5F580152168CB6A23F401
:1008700070032B43CB62216889680E4B194091426B
:1008800008D1E662A16A21F0020141F00101A162F2
:10089000BDE8F081A06A20F0020040F01000A062E4
:1008A000E06A40F00100E0620120F1E7FDF7E1FFBE
:1008B00000E0FFFFFE0E1FFF7047000070B586B01E
:1008C00000250646009501950295039500681D498F
:1008D000884235D11C49886940F400708861886974
:1008E00000F400700490886940F004008861886911
:1008F000694600F00400049001200090032001905C
:10090000124800F0AFF9134C1148C4E900058020EB
:10091000C4E90250400020618000C4E9050520467A
:10092000E56100F00FF908B1FFF746FE34620022DE
:1009300011461220666200F087FC122000F076FC5F
:1009400006B070BD002401400010024000080140C4
:10095000080002404800002010B590F82110002443
:10096000022903D00421816301243DE001680A6863
:1009700022F00E020A6001680A6822F001020A6091
:100980001A4A0168914201D1012121E0174A14322B
:10099000914201D110211BE0144A2832914201D129
:1009A000891515E0114A3C32914201D189140FE0BA
:1009B0000E4A5032914202D14FF4803108E00B4A86
:1009C0006432914202D14FF4801101E04FF0807106
:1009D000064A083A5160012180F82110002180F870
:1009E0002010416B01B18847204610BD080002402D
:1009F0002DE9F05FC16B0C6801680B68D0F840C04E
:100A0000042202FA0CF2494DDFF824A1494E4A4F64
:100A1000DFF828B1DFF828E122422CD05A072AD586
:100A20000A68920603D40A6822F004020A60016888
:100A3000A94201D1042219E0514501D1402215E01B
:100A4000B14202D14FF4806210E0B94202D14FF4BA
:100A500080420BE0594502D14FF4802206E07145F7
:100A600002D14FF4800201E04FF080622F49083933
:100A70004A60C16A3BE04FF0020808FA0CF818EA35
:100A8000040F4FF000094FF0010235D05FEA837880
:100A900032D50B689B0605D40B6823F00A030B6064
:100AA00080F821200168A94201D1022219E05145B4
:100AB00001D1202215E0B14202D14FF4007210E0C2
:100AC000B94202D14FF400520BE0594502D14FF424
:100AD000003206E0714502D14FF4001201E04FF000
:100AE0000072124908394A6080F82090816A002912
:100AF0001AD0BDE8F05F0847082505FA0CF5254235
:100B000012D01B0710D50B6823F00E030B6090F872
:100B10004010C36B02FA01F15960826380F8212012
:100B200080F82090016BE2E7BDE8F09F08000240EA
:100B30001C000240300002404400024058000240C5
:100B40006C00024030B528B308C813491422194478
:100B5000B1FBF2F18900C163104981630221417741
:100B60001A6843F6F0718A43D0E900142143D0E9B2
:100B700002452C432143046921434469214384698C
:100B8000214311431960002141630122427701771B
:100B9000084630BD012030BDF8FFFDBF0000024017
:100BA00070B5044690F82000002501280CD00120E3
:100BB00084F8200094F821600020012E06D084F8EB
:100BC00020000225284670BD022070BD022684F850
:100BD0002160A0632068066826F0010606602046B2
:100BE000FFF7D0FCE06A00282068016802D041F0DD
:100BF0000E0106E021F0040101602068016841F067
:100C00000A0101602068016841F001010160D9E733
:100C100070B5044600F024F90546601C02D0044873
:100C20000078044400F01CF9401BA042FAD370BDC8
:100C300008000020B0F5006F04D14FF48051024845
:100C400000F000B970470000000C0140044910B5E5
:100C50000A68024202D00860FFF7ECFF10BD0000F6
:100C6000140401402DE9F84FDFF8B8910024A9F1F0
:100C7000040B23460F2709F1040AABF1040EC9E067
:100C80000125A5402A40AA427DD1674ED1F804C073
:100C9000ACEB0608B44532D014DCBCF1030F3AD0FB
:100CA00009DCBCF1000F2AD0BCF1010F1CD0BCF153
:100CB000020F31D11DE0BCF1110F17D0BCF1120FA2
:100CC0002AD119E0B8F5881F19D006DCB8F5803FA5
:100CD00015D0B8F5801F1FD111E0B8F5001F0ED058
:100CE000B8F5041F18D10AE0CB6815E0CB681B1DCE
:100CF00012E0CB6808330FE0CB680C330CE08B6854
:100D00002BB1012B4FF0080303D0456104E004230D
:100D100002E0056100E00023FF2A01D8064601E059
:100D200000F104064FEA840501D9A5F12005D6F8A3
:100D3000008007FA05FC28EA0C0803FA05F548EAE2
:100D40000508C6F800804D68ED0062D5374DAE69E4
:100D500046F00106AE61AD6924F0030605F0010519
:100D60000095334D06EB050CDCF80850A607360F4E
:100D700007FA06F825EA0805DFF8B880404503D1F0
:100D80004FF0000817E044E0DFF8AC80404502D1A6
:100D90004FF001080FE0DFF8A480404502D14FF08A
:100DA000020808E0DFF89880404502D14FF00308C0
:100DB00001E04FF0040808FA06F848EA0508CCF804
:100DC00008804D68D9F80060ED024D4601D5164304
:100DD00000E096432E604D68DAF80060AD0255469B
:100DE00001D5164300E096432E604D68DBF80060A5
:100DF000AD035D4601D5164300E096432E604D6875
:100E0000DEF80060ED03754601D5164300E0964319
:100E10002E60641C0D682A46E5407FF431AFBDE8C2
:100E2000F88F00000804014000001110001002407B
:100E30000000014000080140000C0140001001408A
:100E400000140140C26821EA02030A4043EA024159
:100E5000016170470AB1016170470904FBE70000B6
:100E600001488068704700000800002070B5040049
:100E700025D094F83D00002520B984F83C50204648
:100E800000F04EF9242084F83D002068016821F02C
:100E9000010101602068016841F40041016020689F
:100EA000016821F40041016000F014FB4D4A6168C3
:100EB000914201D84C4900E04C49884201D20120BE
:100EC00070BD4B492368B0FBF1F15E6826F03F0628
:100ED0000E435E606368934206D94FF4967359439C
:100EE0004FF47A73B1FBF3F12368491C1E6A26F0B4
:100EF0003F06314319626168914210D84900401E93
:100F0000B0FBF1F2521CC2F30B02042A01D20420FE
:100F100022E0B0FBF1F0401CC0F30B001CE0A26823
:100F2000F2B301EBC10303EB0116431EB3FBF6F36F
:100F30005B1C43F480431B0549D092B301EBC10213
:100F400002EB0111401EB0FBF1F0401CC0F30B009E
:100F500040F4804040F400402168CA694CF6FF73B9
:100F60009A431043C861D4E907100143206802681E
:100F700022F0C00211430160D4E90301014320685B
:100F8000826848F2FF339A4311438160D4E9050136
:100F900008432168CA6822F0FF021043C86001E0DC
:100FA0000EE016E02068016841F00101016025644F
:100FB000202084F83D00256384F83E50002070BD59
:100FC00001EB4106431EB3FBF6F35B1CB3E70120C4
:100FD000C2E701EB4101401EB0FBF1F0401CC0F341
:100FE0000B00B7E7A086010080841E0000093D00C9
:100FF00040420F002DE9F84F1F4690468A460446AE
:10100000DDF82890FFF72CFF054694F83D002028D6
:101010007FD11923012240492046009501F082F931
:10102000002876D194F83C00012872D0012084F881
:101030003C0020680168C90703D1016841F0010143
:1010400001602068016821F400610160212084F8BA
:101050003D00102084F83E0000262664C4F8248059
:101060006785608D20852D48E0622B464A465146B3
:10107000204601F0DDF890B9206841698069009050
:1010800036E02A464946204601F0F2F950B1206C7C
:10109000042804D12068016841F400710160012036
:1010A000BDE8F88F606A216800780861606A401CBA
:1010B0006062618D491E6185218D491E89B221853D
:1010C00022685369DB435B070BD451B10078106190
:1010D000606A401C6062608D401E6085208D401EED
:1010E00020852A464946204601F0F0F80028CED156
:1010F000208D0028C5D154F83D0B016841F40071E2
:101100000160202004F81E09E67766770020C7E713
:10111000FFE70220C4E70000020010000000FFFF0C
:1011200010B586B0002100910191029103910068F1
:101130000F4988421AD10F4CA06940F00800A06105
:10114000A069694600F008000490C02000901220B9
:101150000190032003900848FFF784FDE06940F404
:101160000010E061E06900F40010049006B010BDCA
:101170000054004000100240000C01400248816809
:10118000027811448160704708000020074810B5BC
:10119000016841F010010160032000F075F80F2094
:1011A00000F006F800F024F8002010BD00200240F6
:1011B00070B50D4D04464FF47A712878B1FBF0F00C
:1011C0000A490968B1FBF0F000F0E8FB48B9102CBF
:1011D00007D200222146501E00F036F800206C6035
:1011E00070BD012070BD0000080000201400002028
:1011F0000C4808B5816941F001018161816901F004
:1012000001010091C16941F08051C161C06900F0E4
:10121000805000900448416821F0E06141F0007185
:10122000416008BD0010024000000140002809DBB9
:1012300000F01F02012191404009800000F1E020F0
:10124000C0F8001170470000F0B40E4B1B680C464C
:10125000C3F30223C3F10705042D00D90425191D8A
:10126000072901D2002300E0DB1E012606FA05F162
:10127000491E214099409E40761E16403143F0BCE5
:1012800001F038BD0CED00E0064900F007020868E7
:101290004FF6FF03184040EA0220034A104308605B
:1012A000704700000CED00E00000FA052DE9F8435E
:1012B00005460078354CC00754D0E0690026C000D0
:1012C00008D4E06940F08050E061E069012600F058
:1012D000805000902E480168C90512D401688046EC
:1012E00041F480710160FFF7BBFD074605E000BFD8
:1012F000FFF7B6FDC01B642823D8D8F80000C0054E
:10130000F6D5206A10F4407021D0A98801F440710C
:1013100081421CD0206A1F49012220F440700A60DB
:1013200000220A602062C00711D0FFF799FD07462E
:1013300041F2883808E000BFFFF792FDC11B41452C
:1013400002D90320BDE8F883206A8007F4D5206A1B
:10135000696820F44070084320621EB1E06920F003
:101360008050E0612878800705D56068A96820F47E
:101370004040084360602878C00605D56068E96889
:1013800020F48000084360600020DBE7001002408A
:101390000070004040044242704700002DE9F047D1
:1013A0000F46050061D0434E306800F00700B84298
:1013B00009D2306820F0070038433060306800F010
:1013C0000700B84251D128683B4C810712D540072D
:1013D00003D5606840F4E06060602878000703D5BA
:1013E000606840F4605060606068A96820F0F000B8
:1013F000084360602878C00728D06868012810D0AA
:101400002168022810D0890700292EDA616821F0AE
:10141000030101436160FFF723FD804641F28839F3
:101420000DE021688903EFE78901EDE7FFF718FD7B
:10143000A0EB0801494502D90320BDE8F0876068A8
:10144000696800F00C00B0EB810FEFD1306800F05C
:101450000700B8420BD9306820F0070038433060ED
:10146000306800F00700B84201D00120E5E7287895
:10147000400705D56068E96820F4E06008436060D3
:101480002878000706D56068296920F4605040EA92
:10149000C100606000F02EF86168084AC1F30311D2
:1014A000515CC8400649086006480068FFF780FEA6
:1014B0000020C2E70020024000100240462E000833
:1014C000140000200C00002001490120C86470476E
:1014D000000042420448054900684968044AC1F3D3
:1014E0000221515CC84070471400002000100240E7
:1014F000562E00080E4A51680E4801F00C03042BCA
:1015000011D0082B0FD10C48C1F38343C903C05C31
:101510000AD55168084AC1F34041921E515C054A00
:101520005043B0FBF1F07047044948437047000056
:101530000010024000127A00362E000800093D001B
:1015400010B5044CA068000603D5FFF725FF8020E6
:10155000A07210BD001002402DE9F84F040070D0B9
:101560002078C04DC00749D06868C0F381000128C9
:1015700007D06868C0F38100022809D16868C003F9
:1015800006D52868800339D560680028E7D035E0A3
:101590006068B0F5803F0BD010B1B0F5A02F11D02E
:1015A000286820F480302860286820F4802002E039
:1015B000286840F480302860606890B1FFF750FCE4
:1015C00006460AE0286840F480202860F0E700BF63
:1015D000FFF746FC801B642873D828688003F7D582
:1015E0000CE0FFF73DFC064605E000BFFFF738FCC6
:1015F000801B6428F0D828688003F7D420789A4E9E
:1016000080074FF001094FF0000839D5686810F0E5
:101610000C0F07D06868C0F38100022809D1686800
:10162000C00306D42868800714D52069012808D192
:1016300010E02069B0B1C6F80090FFF711FC074632
:1016400005E00AE1FFF70CFCC01B0228C4D828689B
:101650008007F7D52868616920F0F80040EAC100EA
:1016600028600DE0C6F80080FFF7FAFB074604E0AB
:10167000FFF7F6FBC01B022823D828688007F7D4A1
:10168000207800072CD57948A169D9B1C0F800901D
:10169000FFF7E6FB074604E0FFF7E2FBC01B02286A
:1016A0000FD8686A8007F7D571484FF4FA5100687F
:1016B000B0FBF1F0009000BF0098411E0091FAD2FB
:1016C0000EE080E0C0F80080FFF7CAFB074604E0A8
:1016D000FFF7C6FBC01B022875D8686A8007F7D4DD
:1016E0002078400760D5E8690027C00008D4E86981
:1016F00040F08050E861E869012700F080500090D8
:101700005C480168C90513D40168834641F48071BF
:101710000160FFF7A5FB824606E000BFFFF7A0FBD4
:10172000A0EB0A0064284ED8DBF80000C005F5D510
:10173000E06801280AD008B1052813D0286A20F0F3
:1017400001002862286A20F0040002E0286A40F0C4
:1017500001002862E06841F2883B98B1FFF780FB06
:1017600082460BE0286A40F004002862EEE700BFE2
:10177000FFF776FBA0EB0A0159455AD8286A800783
:10178000F6D50CE0FFF76CFB824605E0FFF768FB3F
:10179000A0EB0A0159454CD8286A8007F6D41FB13E
:1017A000E86920F08050E861E06988B36968C1F3B6
:1017B0008101022944D00228C6F8608004D0FFF7D6
:1017C0004FFB044638E034E0FFF74AFB074604E0ED
:1017D000FFF746FBC01B02282BD828688001F7D4EE
:1017E000206AB0F5803F05D16868A16820F4003018
:1017F00008436860D4E908010843696821F474115A
:1018000008436860C6F86090FFF72AFB044606E0CC
:1018100025E000BFFFF724FB001B022809D8286839
:101820008001F7D51BE000BFFFF71AFB001B022861
:1018300002D90320BDE8F88F28688001F4D40EE0B7
:101840000128F7D06868226A00F48031914204D1FF
:10185000616A00F47010884201D00120EAE700209C
:10186000E8E70000001002400000424280044242CB
:10187000140000200070004070B5040009D0606AB8
:10188000002540B125616561A56294F8510040B121
:101890000CE0012070BD6068B0F5827FF4D0E56196
:1018A000F2E784F85050204600F040F8022084F817
:1018B00051002068016821F040010160A088218961
:1018C00000F4827001F404410843A18901F400612D
:1018D0000843217C01F002010843217D01F0010150
:1018E0000843218B01F400710843217F01F0380186
:1018F000084394F8201001F080010843218D01F481
:101900000051084321680860A069042101EA1040E1
:10191000216848602068C16921F40061C161656582
:10192000012084F85100002070BD000030B585B062
:10193000002400940194029403940068144988429E
:1019400023D11448816941F480518161816901F496
:1019500080510491816941F00401816180690E4DDB
:1019600000F004000490A0200090022001900320C9
:10197000039069462846FFF775F94020CDE9000439
:10198000694628460294FFF76DF905B030BD0000A6
:1019900000300140001002400008014010B5401E18
:1019A000B0F1807F01D3012010BD4FF0E0246061D1
:1019B0000F21601701F09EF90020A061072020612F
:1019C000002010BD7047704710B590F83C20012AE8
:1019D00022D0012280F83C20CA688C6822F4407230
:1019E00022434C6822F4806222430C6822F4006295
:1019F00022430C6922F4805222434C6922F40052A3
:101A00002243C969002322F480420A4301684A64E0
:101A100080F83C30002010BD022010BD70B590F859
:101A20003C20012A26D0012480F83C40022280F884
:101A30003D2003685A689D6822F070060A683243A8
:101A40005A600D4B02689A4208D0B2F1804F05D01F
:101A50000A4B9A4202D00A4B9A4204D1496825F0B7
:101A600080031943916080F83D40002180F83C10CC
:101A7000084670BD022070BD002C014000040040EB
:101A80000008004010B5040003D094F83D0010B1E8
:101A900007E0012010BD002084F83C00204600F043
:101AA0001FF8022084F83D00211D206800F092FFFD
:101AB000012084F8460084F83E0084F83F0084F852
:101AC000400084F8410084F8420084F8430084F820
:101AD000440084F8450084F83D00002010BD00005B
:101AE00008B500680649884208D10648816941F472
:101AF00000618161806900F40060009008BD000011
:101B0000002C01400010024070B5044690F83C00E3
:101B10000025012817D0012684F83C60022084F8B3
:101B20003D002068826822F0770222F47F428260C2
:101B30000868502838D00DDC20284FD005DC90B341
:101B4000102811D14AE0022070BD302846D040282C
:101B50000AD13BE060282FD070280DD0B0F5805F0F
:101B600003D0B0F5005F12D0012584F83D6000205D
:101B700084F83C00284670BDCB68D1E9012120687B
:101B800000F0E0FF2068816841F0770109E0CB6850
:101B9000D1E90121206800F0D5FF2068816841F477
:101BA00080418160E1E719E0CA684968206801F076
:101BB0007DF85021206806E0CA684968206801F075
:101BC00086F86021206800F0C7FFCEE7CA68496840
:101BD000206801F06BF840212068F4E72268014694
:101BE0001046F0E77047704770B504460068016919
:101BF0004FF00005C943890715D4C168C943890757
:101C000011D4E91E016101202077206880698007D6
:101C1000204602D0FFF7E7FF04E000F0E7F8204697
:101C200000F0B2F9257720680169C943490717D444
:101C3000C168C943490713D46FF004010161022050
:101C400020772068806910F4407F204602D0FFF79B
:101C5000CAFF04E000F0CAF8204600F095F92577A5
:101C600020680169C943090716D4C168C943090737
:101C700012D46FF008010161042020772068C06948
:101C80008007204602D0FFF7AEFF04E000F0AEF878
:101C9000204600F079F9257720680169C943C90613
:101CA00017D4C168C943C90613D46FF0100101618C
:101CB000082020772068C06910F4407F204602D0B9
:101CC000FFF791FF04E000F091F8204600F05CF986
:101CD000257720680169C943C90708D1C168C9438C
:101CE000C90704D1891E0161204600F087FA2068E7
:101CF0000169C943090609D4C168C943090605D465
:101D00006FF0800101612046FFF75CFE20680169E9
:101D1000C943490609D4C168C943490605D46FF0CF
:101D200040010161204600F06AFA20680169C94358
:101D300089060BD4C168C943890607D46FF0200116
:101D400001612046BDE87040FFF73DBE70BD000058
:101D500030B585B0002100910191029103911F4B94
:101D600002681F4902241F489A421AD18A6942F028
:101D700004028A618969039401F0040104918115C8
:101D800000911221019169460546FEF76BFF200282
:101D9000CDE90004694628460394FEF763FF05B0C9
:101DA00030BDB2F1804FFAD18A6942F004028A61F3
:101DB0008969039401F0040104914FF40041CDE9D5
:101DC00000146946FEF74EFF0748416821F4407150
:101DD00041F0E06141F480714160E0E7002C014096
:101DE000001002400008014000000140704770B53B
:101DF000044690F83C0000260D4601280FD0012033
:101E000084F83C006AB1042A1DD0082A2FD00C2A7D
:101E10003FD00126002084F83C00304670BD0220EF
:101E200070BD206800F0A0FE2068816941F00801C3
:101E300081612068816921F00401816120688169E4
:101E40002A69114311E0206800F0B6FE206881691C
:101E500041F4006181612068816921F480618161C0
:101E6000206881692A6941EA02218161D2E72068FC
:101E700000F0CEFE2068C16941F00801C161206810
:101E8000C16921F00401C1612068C1692A69114357
:101E900011E0206800F0E8FE2068C16941F40061AB
:101EA000C1612068C16921F48061C1612068C16994
:101EB0002A6941EA0221C161ACE710B5040003D0F0
:101EC00094F83D0010B107E0012010BD002084F817
:101ED0003C00204600F01EF8022084F83D00211D41
:101EE000206800F077FD012084F8460084F83E0069
:101EF00084F83F0084F8400084F8410084F84200F0
:101F000084F8430084F8440084F8450084F83D00D8
:101F1000002010BD38B505460068B0F1804F2BD1C8
:101F20001648C16941F00101C161C069154C00F05A
:101F30000100009012482060102060600020A06026
:101F40008020E06040002061800060612020A0616E
:101F5000C001E0612046FEF7F5FD08B1FEF72CFB5D
:101F60006C62002211461C206562FFF76DF9BDE826
:101F700038401C20FFF75AB938BD0000001002405D
:101F8000580002400C0200200068B0F1804F03D1DD
:101F90000021024800F0D0B870470000C4010020C2
:101FA000704700002DE9F04117460D0004464FF040
:101FB00000060CD0042D11D0082D16D094F8410045
:101FC000022819D094F84100012818D07CE094F838
:101FD0003E00022810D094F83E00F5E794F83F0048
:101FE000022809D094F83F00EEE794F84000022858
:101FF00002D094F84000E7E70220BDE8F081002F0E
:1020000062D0002B60D04649464ADFF81CC102204E
:102010004DB1042D18D0082D27D084F841000C2D87
:1020200044D0012679E084F83E00606A8162606AEB
:102030003946C262606AC0F830C02268606A3432D1
:10204000FEF7AEFD88BB21E084F83F00A06A816204
:10205000A06A3946C262A06AC0F830C02268A06A8D
:102060003832FEF79DFD00BB15E084F84000E06AC1
:102070008162E06A3946C262E06AC0F830C0226814
:10208000E06A3C32FEF78CFD78B909E02068C1684F
:1020900041F400711EE02068C16841F4806119E0DC
:1020A0002068C16841F4006114E00DE0206B81629A
:1020B000206B3946C262206BC0F830C02268206BAA
:1020C0004032FEF76DFD08B1012096E72068C16837
:1020D00041F48051C16001222946206800F0B0FC23
:1020E00012492068884203D1426C42F400424264A3
:1020F0002068884208D0B0F1804F05D00C49884252
:1021000002D00C49884204D1816801F007010629F8
:1021100003D0016841F00101016030466DE7000025
:102120005B2A0008B92A0008F12A0008002C0140A7
:10213000000400400008004070B50D0004464FF058
:10214000000607D0042D0CD0082D11D00C2D16D070
:10215000012645E02068C16821F40071C160606A11
:1021600013E02068C16821F48061C160A06A0CE0BE
:102170002068C16821F40061C160E06A05E0206860
:10218000C16821F48051C160206BFEF7E5FB00229D
:102190002946206800F054FC174B41F211112068C9
:1021A0008A10984209D1036A0B4206D1036A13428E
:1021B00003D1436C23F4004343642068036A0B4259
:1021C00006D1016A114203D1016821F001010160C9
:1021D00001203DB1042D08D0082D09D084F841001C
:1021E000304670BD84F83E00FAE784F83F00F7E718
:1021F00084F84000F4E70000002C0140704770476D
:10220000FEE701684A69D24352050FD46FF4806239
:102210004A61002140F8301F202242738173026915
:1022200042F00402026101730120704700207047F0
:10223000F8B50446C06A1E460D461746082807D062
:10224000012805D010F5803F02D0206B122804D160
:102250002068016841F480710160134600224FF04C
:1022600001112046009600F05DF840B1206800683A
:10227000C00502D54FF4007020640320F8BD20692A
:10228000B0F5804F0ED00620216800EAD51040F04E
:10229000F000086133463A460B49204600F08AF8C0
:1022A00078B902E005F0FE0000E0E8B221680861BC
:1022B000054933463A46891F204600F07BF800283E
:1022C000DCD00120F8BD00000800010070B5164602
:1022D0000D4604461EE02046FFF793FF08B101209B
:1022E00070BD681C16D0FEF7BBFD801BA84200D84D
:1022F00085B920684069C04340070BD5002044F8E9
:10230000300F20216173A073216941F02001216108
:102310002073E4E720684069C0434007DBD4002015
:1023200070BD00002DE9F047984617460D4604465B
:10233000C1F30746DDF820902AE000BFB8F1FF3F67
:1023400026D0FEF78DFDA0EB0901414502D8B8F17A
:10235000000F1DD12068012E16D0806925EA0000EB
:102360000004000C12D00020B84211D1002044F823
:10237000300F20216173A073216941F02001216198
:1023800020730120BDE8F0874069E7E70120EBE713
:102390002068012E0AD0806925EA00000004000CA4
:1023A00006D00020B842C9D00020EBE74069F3E72F
:1023B0000120F7E72DE9F047984616460D460446FA
:1023C0004FF000094FF0200AC1F3074723E02068CF
:1023D0004069C043400515D42068016841F400718C
:1023E000016021686FF480604861C4F8309084F81F
:1023F0003DA084F83E90216C41F00401216484F8F2
:102400003C9021E0701C06D0FEF72AFDA0EB0800EE
:10241000B04203D816B1012F1FD021E02068012F50
:1024200015D0806925EA00000004000C18D000BF18
:1024300044F8309F84F80DA084F80E90216941F093
:102440002001216184F80C900120BDE8F0874069EB
:1024500025EA00000004000CEAD12068406901E090
:102460002068806925EA00000004000CAFD1ECE789
:1024700070B516460D4604461EE02046FFF7C1FE25
:1024800008B1012070BD681C16D0FEF7E9FC801B66
:10249000A84200D885B920684069C04300060BD522
:1024A000002044F8300F20216173A073216941F0AE
:1024B000200121612073E4E720684069C0430006E1
:1024C000DBD4002070BD00003EB50024104800940D
:1024D000019402940D49846001600125057304751F
:1024E00005614FF460214460C161FEF757F908B1FE
:1024F000FEF762F8CDE90045694605480294FEF70B
:102500005FF8002801D0FEF757F83EBD00240140D7
:1025100018000020174808B5416941F001014161E8
:102520004069154900F001000090144801604FF423
:1025300080414160402181608021C16000210161B2
:1025400041618161C161FEF7FDFA08B1FEF734F81F
:10255000002211460B20FEF777FE0B20FEF766FEE9
:10256000002211460F20FEF76FFEBDE808400F2045
:10257000FEF75CBE00100240300002408C000020DC
:102580002DE9F04186B0002429480094019402947A
:102590000394816941F020018161816901F020018A
:1025A0000491816941F004018161816901F00401B4
:1025B0000491816941F00801816180691D4F00F03B
:1025C00008000490002210213846FEF743FCDFF893
:1025D0006880BE14002231464046FEF73BFC1020C6
:1025E000009001AA0120022582E8310069463846A0
:1025F000FEF738FBA80200901048CDE901046946B7
:102600004046FEF72FFB01AA1120009682E8310018
:1026100069464046FEF726FB002211462820FEF7B9
:1026200013FE2820FEF702FE06B0BDE8F081000090
:102630000010024000080140000C01400000211081
:102640000D4810B50B4901600C49416000214FF461
:1026500080428160C0E9031241618161C161016210
:10266000FEF704FC002803D0BDE81040FDF7A4BF2E
:1026700010BD000000540040D0000020A0860100E2
:10268000104810B50E4901604FF48271416000217D
:1026900002228160C0E9031201224261520282617A
:1026A0002822C0E90721416281620A21C162FFF745
:1026B000E3F8002803D0BDE81040FDF77DBF10BD52
:1026C000003001402401002030B595B000240F9463
:1026D00010941194129413941C2168461494FDF7DD
:1026E000EFFD202107A8FDF7EBFD2D482B494FF406
:1026F000805502C00A2132C040F81049446184610B
:102700002748FFF7BFF908B1FDF756FF0FA9244886
:102710000F95FFF7F9F908B1FDF74EFF2048FFF7D5
:10272000CCFB08B1FDF748FF139413A91C4814947F
:10273000FFF774F908B1FDF73FFF602000904FF4F8
:10274000FA70CDE9010403940494059400226946CB
:1027500013480694FFF74BFB08B1FDF72DFFFA2055
:102760000190042269460E48FFF741FB08B1FDF7CE
:1027700023FF0794089409944FF400500A94CDE97C
:102780000B4007A906480E94FFF71EF908B1FDF7A4
:1027900013FF0348FFF7DCFA15B030BD002C0140F1
:1027A0007C01002010B58AB0002407941C216846E3
:1027B0000894FDF785FD15484FF08041C0E90014ED
:1027C0005921C0E9024104618461FFF776FB08B139
:1027D000FDF7F2FE079407A90C480894FFF71EF9CD
:1027E00008B1FDF7E9FE602000901E20CDE901044C
:1027F0000022694605480494FFF7F9FA08B1FDF78D
:10280000DBFE0248FFF7A4FA0AB010BDC4010020A5
:10281000FEE7FEF795FEFEE770B5002404F1B00078
:10282000C0B200F06BF8002000F068F8102000F053
:1028300065F80025002000F073F86D1CEDB2802DC6
:10284000F8D3641CE4B2082CE8D370BD10B5AE20F8
:1028500000F054F8D52000F051F8802000F04EF838
:10286000FF2000F04BF83F2000F048F8D32000F0A4
:1028700045F8002000F042F8402000F03FF88D209D
:1028800000F03CF8142000F039F8A12000F036F8F0
:10289000C82000F033F8DA2000F030F8122000F001
:1028A0002DF8812000F02AF8FF2000F027F8002002
:1028B00000F024F8102000F021F8B02000F01EF8FD
:1028C000D92000F01BF8F12000F018F8DB2000F010
:1028D00015F8302000F012F8D82000F00FF805208D
:1028E00000F00CF8A62000F009F86420FEF790F93B
:1028F000BDE81040AF2000F001B870471CB50021C2
:102900008DF804108DF805004FF4FA700090022342
:1029100001AA78210148FEF76DFB1CBDD000002004
:102920001CB540218DF804108DF805004FF4FA70A5
:102930000090022301AA78210148FEF75BFB1CBD31
:10294000D00000207047FEF719BC30B593B02821A5
:102950006846FDF7B5FC14210AA8FDF7B1FC002577
:1029600001200F9510951195010412958DE8230013
:1029700004904FF4E010CDE9081002240794684653
:10298000FEF7EAFD08B172B6FEE70AA90F2081E85A
:1029900031004FF48060CDE90D0502210AA8FEF751
:1029A000FDFC08B172B6FEE74FF4404011900F9461
:1029B0000FA8FEF77BFC08B172B6FEE7FEF784FDB8
:1029C00013B030BD704700000148FFF70DB900009B
:1029D000C4010020F0B50268164B174C174D4FF09C
:1029E0008047984205D0B84203D0A04201D0A84207
:1029F00003D122F070064A683243984205D0B842AB
:102A000003D0A04201D0A84203D122F44074CA6886
:102A100022434C6922F08002224302608A68C2622B
:102A20000A688262984201D109690163012141610A
:102A3000F0BD0000002C01400004004000080040F0
:102A400010B501F01F030121046A99408C43046210
:102A5000016A9A401143016210BD10B5446A012118
:102A6000626A824205D121778069F8B984F83E1004
:102A70001CE0A26A824206D1022222778069A8B9AC
:102A800084F83F1012E0E26A824206D104222277E3
:102A9000806958B984F8401008E0226B824205D161
:102AA00008222277806908B984F841102046FFF790
:102AB0006BFA0020207710BD10B5446A616A81422C
:102AC00001D101200DE0A16A814201D1022008E07C
:102AD000E16A814201D1042003E0216B814201D1EE
:102AE000082020772046FFF75BFA0020207710BDF2
:102AF00010B5446A0121626A824203D1217784F8C9
:102B00003E1019E0A26A824204D10220207784F8A4
:102B10003F1011E0E26A824204D10420207784F859
:102B2000401009E0226B824204D10820207784F80B
:102B3000411001E084F83D102046FFF753F80020D3
:102B4000207710BD10B5846842EA032224F47F4444
:102B50000A432243826010BD826822F070020A4359
:102B600042F007018160704730B5036A026A22F0C3
:102B7000010202624268846924F073050C682C43E8
:102B800023F002058B682B430A4DA8420BD123F09A
:102B90000805CB6822F440722B434D6923F00403EF
:102BA00015438A692A43426084614968416303622C
:102BB00030BD0000002C014030B5026A036A23F0EA
:102BC00010030362436884690D6824F4E64444EA10
:102BD00005248D6822F0200242EA05120B4DA8421E
:102BE0000ED1CD6822F0800242EA05124D6923F42D
:102BF000406343EA85038D6922F0400243EA85037E
:102C00004360846149688163026230BD002C0140E9
:102C100030B5036A026A22F4807202624268C469B3
:102C200023F4007324F073050C682C438D6843EA89
:102C300005230C4DA8420ED1CD6823F4006343EA6E
:102C400005234D6922F4405242EA05128D6923F4AE
:102C5000806342EA05124260C4614968C16303624D
:102C600030BD0000002C014030B5046A026A22F435
:102C7000805202624268C3690D6823F4E64343EA66
:102C800005238D6824F4005444EA0534064DA84217
:102C900004D14D6922F4804242EA85124260C36148
:102CA00049680164046230BD002C014010B5036A1C
:102CB000046A24F001040462846924F0F00444EA04
:102CC000021423F00A020A438461026210BD10B5A7
:102CD000036A046A24F010040462846923F0A003E8
:102CE00024F4704444EA023243EA01118261016231
:102CF00010BDFEE70907090E002804DB00F1E02003
:102D000080F80014704700F00F0000F1E02080F818
:102D1000141D7047FEF73AFAFFF717FEFFF730FC75
:102D2000FFF7F8FBFFF7D0FBFFF78AFCFFF7CCFCBF
:102D3000FFF738FDFFF7A4FCFFF788FDFFF76CFDF8
:102D400000F01EF8FCE7000070B50C4C054660680A
:102D5000FDF76DFA05EB450080B260802830FDF785
:102D600037FA606028B161882831FDF787FA25803D
:102D700070BD00206080208070BD00000000002039
:102D800010B5154C2088FFF7DFFF00220123114604
:102D9000222000F025F8002202232221104600F014
:102DA0001FF8002103232222084600F019F82222EE
:102DB00000231146104600F013F82088282100EB6C
:102DC000400001EBC000626883B2BDE81040002102
:102DD0000248FFF7E7B8000000000020C40100200F
:102DE00070B5134C03EB4303646804EBC304002386
:102DF00014F1280401FA03F52D0601D5302500E071
:102E00001B25E55400FA03F52D0601D5302600E018
:102E10001B26E5182E7202FA03F6360601D5302677
:102E200000E01B265B1C9BB22E74082BE2D370BD06
:102E300000000020010202030405060708090A0B2E
:102E40000C0D0E0F10100000000000000000010229
:102E50000304060708090000000001020304000043
:102E6000802E000800000020180000002801000843
:102E7000982E00081800002098080000440100085F
:102E8000040000000000000001000000100000002D
:082E9000000000000024F40022
:04000005080000ED02
:00000001FF
